{
  "contractName": "Voting",
  "abi": [
    {
      "constant": false,
      "inputs": [
        {
          "name": "_voterHash",
          "type": "string"
        }
      ],
      "name": "addVoter",
      "outputs": [
        {
          "name": "",
          "type": "bool"
        }
      ],
      "payable": false,
      "stateMutability": "nonpayable",
      "type": "function",
      "signature": "0xaca84892"
    },
    {
      "constant": false,
      "inputs": [
        {
          "name": "_candidateHash",
          "type": "string"
        }
      ],
      "name": "addCandidate",
      "outputs": [
        {
          "name": "",
          "type": "bool"
        }
      ],
      "payable": false,
      "stateMutability": "nonpayable",
      "type": "function",
      "signature": "0x462e91ec"
    },
    {
      "constant": true,
      "inputs": [],
      "name": "getVoters",
      "outputs": [
        {
          "name": "",
          "type": "string[]"
        }
      ],
      "payable": false,
      "stateMutability": "view",
      "type": "function",
      "signature": "0xcdd72253"
    },
    {
      "constant": true,
      "inputs": [],
      "name": "getCandidates",
      "outputs": [
        {
          "name": "",
          "type": "string[]"
        }
      ],
      "payable": false,
      "stateMutability": "view",
      "type": "function",
      "signature": "0x06a49fce"
    },
    {
      "constant": false,
      "inputs": [
        {
          "name": "_candidateHash",
          "type": "string"
        },
        {
          "name": "_voterHash",
          "type": "string"
        }
      ],
      "name": "vote",
      "outputs": [
        {
          "name": "",
          "type": "bool"
        }
      ],
      "payable": false,
      "stateMutability": "nonpayable",
      "type": "function",
      "signature": "0xe8d5940d"
    },
    {
      "constant": false,
      "inputs": [],
      "name": "reset",
      "outputs": [],
      "payable": false,
      "stateMutability": "nonpayable",
      "type": "function",
      "signature": "0xd826f88f"
    },
    {
      "constant": true,
      "inputs": [
        {
          "name": "_candidateHash",
          "type": "string"
        }
      ],
      "name": "getVoteCount",
      "outputs": [
        {
          "name": "",
          "type": "uint256"
        }
      ],
      "payable": false,
      "stateMutability": "view",
      "type": "function",
      "signature": "0x069953a7"
    }
  ],
  "bytecode": "0x608060405234801561001057600080fd5b50610aed806100206000396000f3fe608060405234801561001057600080fd5b506004361061007d5760003560e01c8063aca848921161005b578063aca8489214610100578063cdd7225314610130578063d826f88f1461014e578063e8d5940d146101585761007d565b8063069953a71461008257806306a49fce146100b2578063462e91ec146100d0575b600080fd5b61009c600480360361009791908101906106a5565b610188565b6040516100a9919061095c565b60405180910390f35b6100ba6101b0565b6040516100c7919061091f565b60405180910390f35b6100ea60048036036100e591908101906106a5565b610299565b6040516100f79190610941565b60405180910390f35b61011a600480360361011591908101906106a5565b610307565b6040516101279190610941565b60405180910390f35b610138610374565b604051610145919061091f565b60405180910390f35b61015661045d565b005b610172600480360361016d91908101906106e6565b610515565b60405161017f9190610941565b60405180910390f35b600060028260405161019a91906108f1565b9081526020016040518091039020549050919050565b60606001805480602002602001604051908101604052809291908181526020016000905b82821015610290578382906000526020600020018054600181600116156101000203166002900480601f01602080910402602001604051908101604052809291908181526020018280546001816001161561010002031660029004801561027c5780601f106102515761010080835404028352916020019161027c565b820191906000526020600020905b81548152906001019060200180831161025f57829003601f168201915b5050505050815260200190600101906101d4565b50505050905090565b600060018290806001815401808255809150509060018203906000526020600020016000909192909190915090805190602001906102d89291906105ac565b505060006002836040516102ec91906108f1565b90815260200160405180910390208190555060019050919050565b6000808290806001815401808255809150509060018203906000526020600020016000909192909190915090805190602001906103459291906105ac565b5050600060038360405161035991906108f1565b90815260200160405180910390208190555060019050919050565b60606000805480602002602001604051908101604052809291908181526020016000905b82821015610454578382906000526020600020018054600181600116156101000203166002900480601f0160208091040260200160405190810160405280929190818152602001828054600181600116156101000203166002900480156104405780601f1061041557610100808354040283529160200191610440565b820191906000526020600020905b81548152906001019060200180831161042357829003601f168201915b505050505081526020019060010190610398565b50505050905090565b60008090505b6000805490508110156104b757600060036000838154811061048157fe5b906000526020600020016040516104989190610908565b9081526020016040518091039020819055508080600101915050610463565b5060008090505b6001805490508110156105125760006002600183815481106104dc57fe5b906000526020600020016040516104f39190610908565b90815260200160405180910390208190555080806001019150506104be565b50565b60008060038360405161052891906108f1565b9081526020016040518091039020541461054557600090506105a6565b60038260405161055591906108f1565b90815260200160405180910390206000815480929190600101919050555060028360405161058391906108f1565b908152602001604051809103902060008154809291906001019190505550600190505b92915050565b828054600181600116156101000203166002900490600052602060002090601f016020900481019282601f106105ed57805160ff191683800117855561061b565b8280016001018555821561061b579182015b8281111561061a5782518255916020019190600101906105ff565b5b509050610628919061062c565b5090565b61064e91905b8082111561064a576000816000905550600101610632565b5090565b90565b600082601f83011261066257600080fd5b8135610675610670826109a4565b610977565b9150808252602083016020830185838301111561069157600080fd5b61069c838284610a60565b50505092915050565b6000602082840312156106b757600080fd5b600082013567ffffffffffffffff8111156106d157600080fd5b6106dd84828501610651565b91505092915050565b600080604083850312156106f957600080fd5b600083013567ffffffffffffffff81111561071357600080fd5b61071f85828601610651565b925050602083013567ffffffffffffffff81111561073c57600080fd5b61074885828601610651565b9150509250929050565b600061075e838361081b565b905092915050565b6000610771826109ef565b61077b8185610a1d565b93508360208202850161078d856109d0565b8060005b858110156107c957848403895281516107aa8582610752565b94506107b583610a10565b925060208a01995050600181019050610791565b50829750879550505050505092915050565b6107e481610a4a565b82525050565b60006107f582610a05565b6107ff8185610a3f565b935061080f818560208601610a6f565b80840191505092915050565b6000610826826109fa565b6108308185610a2e565b9350610840818560208601610a6f565b61084981610aa2565b840191505092915050565b6000815460018116600081146108715760018114610896576108da565b607f60028304166108828187610a3f565b955060ff19831686528086019350506108da565b600282046108a48187610a3f565b95506108af856109dd565b60005b828110156108d1578154818901526001820191506020810190506108b2565b82880195505050505b505092915050565b6108eb81610a56565b82525050565b60006108fd82846107ea565b915081905092915050565b60006109148284610854565b915081905092915050565b600060208201905081810360008301526109398184610766565b905092915050565b600060208201905061095660008301846107db565b92915050565b600060208201905061097160008301846108e2565b92915050565b6000604051905081810181811067ffffffffffffffff8211171561099a57600080fd5b8060405250919050565b600067ffffffffffffffff8211156109bb57600080fd5b601f19601f8301169050602081019050919050565b6000602082019050919050565b60008160005260206000209050919050565b600081519050919050565b600081519050919050565b600081519050919050565b6000602082019050919050565b600082825260208201905092915050565b600082825260208201905092915050565b600081905092915050565b60008115159050919050565b6000819050919050565b82818337600083830152505050565b60005b83811015610a8d578082015181840152602081019050610a72565b83811115610a9c576000848401525b50505050565b6000601f19601f830116905091905056fea265627a7a72305820f21e771ca92190a6d104b97bf8beee1b95ed6e8ef01f36f016c77367c480fa5a6c6578706572696d656e74616cf50037",
  "source": "// pragma solidity >=0.4.21 <0.6.0;\npragma experimental ABIEncoderV2;\n\ncontract Voting {\n\n    string[] voterHash;\n    string[] candidateHash;\n    mapping (string => uint) candidateVoteCount;\n    mapping (string => uint) voterVoteCount;\n\n    function addVoter(string memory _voterHash) public returns (bool){\n        voterHash.push(_voterHash);\n        voterVoteCount[_voterHash] = 0;\n        return true;\n    }\n\n    function addCandidate(string memory _candidateHash) public returns (bool) {\n        candidateHash.push(_candidateHash);\n        candidateVoteCount[_candidateHash] = 0;\n        return true;\n    }\n\n    function getVoters() public view returns (string[] memory) {\n        return voterHash;\n    }\n\n    function getCandidates() public view returns (string[] memory) {\n        return candidateHash;\n    }\n\n    function vote(string memory _candidateHash, string memory _voterHash) public returns (bool) {\n\n        if(voterVoteCount[_voterHash] != 0)\n            return false;\n        else{\n            voterVoteCount[_voterHash]++;\n            candidateVoteCount[_candidateHash]++;\n            return true;\n        }\n    }\n\n    function reset() public\n    {\n        for(uint i=0;i<voterHash.length; i++)\n        {\n            voterVoteCount[voterHash[i]] = 0;\n        }\n\n        for(uint i=0;i<candidateHash.length; i++)\n        {\n            candidateVoteCount[candidateHash[i]] = 0;\n        }\n    }\n\n    function getVoteCount(string memory _candidateHash) public view returns (uint) {\n        return candidateVoteCount[_candidateHash];\n    }\n}",
  "sourcePath": "/home/njnisarg/codefundo2k19/blockchain/contracts/Voting.sol",
  "compiler": {
    "name": "solc",
    "version": "0.5.8+commit.23d335f2.Emscripten.clang"
  },
  "schemaVersion": "3.0.2",
  "updatedAt": "2019-08-16T21:13:01.897Z",
  "devdoc": {
    "methods": {}
  },
  "userdoc": {
    "methods": {}
  }
}