{
  "contractName": "Voting",
  "abi": [
    {
      "constant": false,
      "inputs": [
        {
          "name": "_voterAddress",
          "type": "address"
        }
      ],
      "name": "addVoter",
      "outputs": [
        {
          "name": "",
          "type": "bool"
        }
      ],
      "payable": false,
      "stateMutability": "nonpayable",
      "type": "function"
    },
    {
      "constant": false,
      "inputs": [
        {
          "name": "_candidateAddress",
          "type": "address"
        }
      ],
      "name": "addCandidate",
      "outputs": [
        {
          "name": "",
          "type": "bool"
        }
      ],
      "payable": false,
      "stateMutability": "nonpayable",
      "type": "function"
    },
    {
      "constant": false,
      "inputs": [
        {
          "name": "_candidateAddress",
          "type": "address"
        }
      ],
      "name": "vote",
      "outputs": [
        {
          "name": "",
          "type": "bool"
        }
      ],
      "payable": false,
      "stateMutability": "nonpayable",
      "type": "function"
    },
    {
      "constant": false,
      "inputs": [],
      "name": "reset",
      "outputs": [],
      "payable": false,
      "stateMutability": "nonpayable",
      "type": "function"
    },
    {
      "constant": true,
      "inputs": [
        {
          "name": "_candidateAddress",
          "type": "address"
        }
      ],
      "name": "getVoteCount",
      "outputs": [
        {
          "name": "",
          "type": "uint256"
        }
      ],
      "payable": false,
      "stateMutability": "view",
      "type": "function"
    }
  ],
  "bytecode": "0x608060405234801561001057600080fd5b506105e6806100206000396000f3fe608060405234801561001057600080fd5b50600436106100575760003560e01c80633acd75f81461005c5780636dd7d8ea146100b8578063d826f88f14610114578063e652f4cc1461011e578063f4ab9adf14610176575b600080fd5b61009e6004803603602081101561007257600080fd5b81019080803573ffffffffffffffffffffffffffffffffffffffff1690602001909291905050506101d2565b604051808215151515815260200191505060405180910390f35b6100fa600480360360208110156100ce57600080fd5b81019080803573ffffffffffffffffffffffffffffffffffffffff169060200190929190505050610288565b604051808215151515815260200191505060405180910390f35b61011c610381565b005b6101606004803603602081101561013457600080fd5b81019080803573ffffffffffffffffffffffffffffffffffffffff1690602001909291905050506104bc565b6040518082815260200191505060405180910390f35b6101b86004803603602081101561018c57600080fd5b81019080803573ffffffffffffffffffffffffffffffffffffffff169060200190929190505050610505565b604051808215151515815260200191505060405180910390f35b600060018290806001815401808255809150509060018203906000526020600020016000909192909190916101000a81548173ffffffffffffffffffffffffffffffffffffffff021916908373ffffffffffffffffffffffffffffffffffffffff160217905550506000600260008473ffffffffffffffffffffffffffffffffffffffff1673ffffffffffffffffffffffffffffffffffffffff1681526020019081526020016000208190555060019050919050565b600080600360003373ffffffffffffffffffffffffffffffffffffffff1673ffffffffffffffffffffffffffffffffffffffff16815260200190815260200160002054146102d9576000905061037c565b600360003373ffffffffffffffffffffffffffffffffffffffff1673ffffffffffffffffffffffffffffffffffffffff16815260200190815260200160002060008154809291906001019190505550600260008373ffffffffffffffffffffffffffffffffffffffff1673ffffffffffffffffffffffffffffffffffffffff16815260200190815260200160002060008154809291906001019190505550600190505b919050565b60008090505b60008054905081101561041c576000600360008084815481106103a657fe5b9060005260206000200160009054906101000a900473ffffffffffffffffffffffffffffffffffffffff1673ffffffffffffffffffffffffffffffffffffffff1673ffffffffffffffffffffffffffffffffffffffff168152602001908152602001600020819055508080600101915050610387565b5060008090505b6001805490508110156104b9576000600260006001848154811061044357fe5b9060005260206000200160009054906101000a900473ffffffffffffffffffffffffffffffffffffffff1673ffffffffffffffffffffffffffffffffffffffff1673ffffffffffffffffffffffffffffffffffffffff168152602001908152602001600020819055508080600101915050610423565b50565b6000600260008373ffffffffffffffffffffffffffffffffffffffff1673ffffffffffffffffffffffffffffffffffffffff168152602001908152602001600020549050919050565b6000808290806001815401808255809150509060018203906000526020600020016000909192909190916101000a81548173ffffffffffffffffffffffffffffffffffffffff021916908373ffffffffffffffffffffffffffffffffffffffff160217905550506000600360008473ffffffffffffffffffffffffffffffffffffffff1673ffffffffffffffffffffffffffffffffffffffff168152602001908152602001600020819055506001905091905056fea165627a7a723058207698032623a5ddd206538c1f5ada4d476faf68144bf1bea2603cdac0c8cf29a70029",
  "source": "pragma solidity >=0.4.21 <0.6.0;\n\ncontract Voting {\n\n    address[] voterAddresses;\n    address[] candidateAddresses;\n    mapping (address => uint) candidateVoteCount;\n    mapping (address => uint) voterVoteCount;\n\n    function addVoter(address _voterAddress) public returns (bool){\n        voterAddresses.push(_voterAddress);\n        voterVoteCount[_voterAddress] = 0;\n        return true;\n    }\n\n    function addCandidate(address _candidateAddress) public returns (bool) {\n        candidateAddresses.push(_candidateAddress);\n        candidateVoteCount[_candidateAddress] = 0;\n        return true;\n    }\n\n    function vote(address _candidateAddress) public returns (bool) {\n\n        if(voterVoteCount[msg.sender] != 0)\n            return false;\n        else{\n            voterVoteCount[msg.sender]++;\n            candidateVoteCount[_candidateAddress]++;\n            return true;\n        }\n    }\n\n    function reset() public\n    {\n        for(uint i=0;i<voterAddresses.length; i++)\n        {\n            voterVoteCount[voterAddresses[i]] = 0;\n        }\n\n        for(uint i=0;i<candidateAddresses.length; i++)\n        {\n            candidateVoteCount[candidateAddresses[i]] = 0;\n        }\n    }\n\n    function getVoteCount(address _candidateAddress) public view returns (uint) {\n        return candidateVoteCount[_candidateAddress];\n    }\n}",
  "sourcePath": "/home/njnisarg/codefundo2k19/blockchain/contracts/Voting.sol",
  "compiler": {
    "name": "solc",
    "version": "0.5.8+commit.23d335f2.Emscripten.clang"
  },
  "schemaVersion": "3.0.11",
  "updatedAt": "2019-08-14T12:02:09.210Z",
  "devdoc": {
    "methods": {}
  },
  "userdoc": {
    "methods": {}
  }
}